:1000000009C033C032C082C030C02FC02EC02DC046
:100010002CC02BC011241FBECFE9CDBF80E888B90A
:100020008FE384BB04B600FC0CC004B601FE0BC019
:10003000809162008F5F80936200809162008230C5
:1000400010F01092620014BE81E088BB87BB83BFB2
:1000500082E089BF789410E0A0E6B0E001C01D9274
:10006000A236B107E1F73CD068C0CACF90936100D7
:100070008093600020E602C025BF889580916000D3
:1000800090916100892BC1F7089524EF31E050E68B
:10009000E1E06EE170E04AE018BA709361006093AD
:1000A000600002C055BF889580916000909161000A
:1000B000892BC1F7E8BB309361002093600002C038
:1000C00055BF88958091600090916100892BC1F7A0
:1000D000415011F721153105F1F229513040DBCFA4
:1000E00080916200882319F0813079F402C0CDDF5D
:1000F00008958FE188BB83E022E090E7F8948CBFFD
:1001000080BF20BF95BF8895F9CF08951F920F92A9
:100110000FB60F9211248F939F938091600090915E
:100120006100019790936100809360009F918F918F
:0E0130000F900FBE0F901F901895F894FFCF00
:00000001FF
