:1000000009C033C032C08DC030C02FC02EC02DC03B
:100010002CC02BC011241FBECFE9CDBF80E888B90A
:100020008FE384BB04B600FC0CC004B601FE0BC019
:10003000809164008F5F80936400809164008230BF
:1000400010F01092640014BE18BA81E087BB83BF21
:1000500082E089BF789410E0A0E6B0E001C01D9274
:10006000A436B107E1F748D07CC0CACF90936100B5
:100070008093600020E602C025BF889580916000D3
:1000800090916100892BC1F708951092630010923E
:10009000620024EB30E071E04EE150E060E678BBB6
:1000A000509361004093600002C065BF88958091C5
:1000B000600090916100892BC1F718BA30936100FC
:1000C0002093600002C065BF889580916000909188
:1000D0006100892BC1F78091620090916300805B81
:1000E0009440E8F210926300109262002F313105C3
:1000F000B0F22E513040D3CF80916400882319F0A4
:10010000813071F402C0C1DF089518BA83E022E0A3
:1001100090E7F8948CBF80BF20BF95BF8895F9CF3A
:1001200008951F920F920FB60F9211248F939F93F1
:10013000809160009091610001979093610080939D
:10014000600080916200909163000196909363003B
:10015000809362009F918F910F900FBE0F901F9020
:060160001895F894FFCF92
:00000001FF
