:1000000009C037C036C091C034C033C032C031C01F
:1000100030C02FC011241FBECFE9CDBF80E888B902
:100020008FE384BB04B600FE04C081E080936400CB
:100030000EC004B601FE0BC0809164008F5F8093F8
:10004000640080916400823010F01092640014BE4D
:1000500018BA81E087BB83BF82E089BF789410E043
:10006000A0E6B0E001C01D92A436B107E1F748D088
:100070007CC0C6CF909361008093600020E602C0F0
:1000800025BF88958091600090916100892BC1F710
:100090000895109263001092620027ED30E071E045
:1000A00045E050E060E678BB50936100409360000B
:1000B00002C065BF88958091600090916100892B96
:1000C000C1F718BA309361002093600002C065BF89
:1000D00088958091600090916100892BC1F7809193
:1000E00062009091630080519E40E8F2109263009C
:1000F0001092620026303105B0F22E513040D3CF3D
:1001000080916400882319F0813071F402C0C1DF4E
:10011000089518BA83E022E090E7F8948CBF80BF7E
:1001200020BF95BF8895F9CF08951F920F920FB603
:100130000F9211248F939F938091600090916100A2
:10014000019790936100809360008091620090918C
:100150006300019690936300809362009F918F915A
:0E0160000F900FBE0F901F901895F894FFCFD0
:00000001FF
